{"abi":[{"type":"constructor","inputs":[{"name":"_srpFees","type":"address","internalType":"address"},{"name":"_maxBatch","type":"uint256","internalType":"uint256"}],"stateMutability":"nonpayable"},{"type":"function","name":"ARCHIVE_DELAY_SECONDS","inputs":[],"outputs":[{"name":"","type":"uint256","internalType":"uint256"}],"stateMutability":"view"},{"type":"function","name":"MAX_BATCH_SIZE","inputs":[],"outputs":[{"name":"","type":"uint256","internalType":"uint256"}],"stateMutability":"view"},{"type":"function","name":"addSrpSigned","inputs":[{"name":"p","type":"tuple","internalType":"struct IMechanism.AddSrpPayload","components":[{"name":"processId","type":"uint256","internalType":"uint256"},{"name":"seller","type":"address","internalType":"address"},{"name":"amount","type":"uint256","internalType":"uint256"},{"name":"token","type":"address","internalType":"address"},{"name":"totalProcessValue","type":"uint256","internalType":"uint256"},{"name":"deadline","type":"uint256","internalType":"uint256"},{"name":"nonce","type":"uint256","internalType":"uint256"},{"name":"metadata","type":"bytes","internalType":"bytes"}]},{"name":"sellerSig","type":"bytes","internalType":"bytes"},{"name":"erc2612Permit","type":"bytes","internalType":"bytes"}],"outputs":[{"name":"srpId","type":"uint256","internalType":"uint256"}],"stateMutability":"nonpayable"},{"type":"function","name":"addSrpSignedBatch","inputs":[{"name":"payloads","type":"tuple[]","internalType":"struct IMechanism.AddSrpPayload[]","components":[{"name":"processId","type":"uint256","internalType":"uint256"},{"name":"seller","type":"address","internalType":"address"},{"name":"amount","type":"uint256","internalType":"uint256"},{"name":"token","type":"address","internalType":"address"},{"name":"totalProcessValue","type":"uint256","internalType":"uint256"},{"name":"deadline","type":"uint256","internalType":"uint256"},{"name":"nonce","type":"uint256","internalType":"uint256"},{"name":"metadata","type":"bytes","internalType":"bytes"}]},{"name":"sellerSigs","type":"bytes[]","internalType":"bytes[]"},{"name":"erc2612Permits","type":"bytes[]","internalType":"bytes[]"}],"outputs":[{"name":"srpIds","type":"uint256[]","internalType":"uint256[]"}],"stateMutability":"nonpayable"},{"type":"function","name":"addSrpToProcess","inputs":[{"name":"processId","type":"uint256","internalType":"uint256"},{"name":"thirdPartySeller","type":"address","internalType":"address"},{"name":"amount","type":"uint256","internalType":"uint256"}],"outputs":[{"name":"srpId","type":"uint256","internalType":"uint256"}],"stateMutability":"nonpayable"},{"type":"function","name":"archiveProcessSrpsWithDeposit","inputs":[{"name":"processId","type":"uint256","internalType":"uint256"}],"outputs":[{"name":"archivedCount","type":"uint256","internalType":"uint256"}],"stateMutability":"nonpayable"},{"type":"function","name":"batchArchiveProcesses","inputs":[{"name":"processIds","type":"uint256[]","internalType":"uint256[]"}],"outputs":[{"name":"totalArchived","type":"uint256","internalType":"uint256"}],"stateMutability":"nonpayable"},{"type":"function","name":"batchCancel","inputs":[{"name":"srpIds","type":"uint256[]","internalType":"uint256[]"}],"outputs":[{"name":"totalCancelled","type":"uint256","internalType":"uint256"}],"stateMutability":"nonpayable"},{"type":"function","name":"batchCreateProcesses","inputs":[{"name":"buyers","type":"address[]","internalType":"address[]"},{"name":"amounts","type":"uint256[]","internalType":"uint256[]"},{"name":"tokens","type":"address[]","internalType":"address[]"}],"outputs":[{"name":"processIds","type":"uint256[]","internalType":"uint256[]"},{"name":"srpIds","type":"uint256[]","internalType":"uint256[]"}],"stateMutability":"nonpayable"},{"type":"function","name":"batchGrantRootSellerConsent","inputs":[{"name":"rootSellers","type":"address[]","internalType":"address[]"},{"name":"approved","type":"bool","internalType":"bool"}],"outputs":[],"stateMutability":"nonpayable"},{"type":"function","name":"batchLock","inputs":[{"name":"processIds","type":"uint256[]","internalType":"uint256[]"}],"outputs":[],"stateMutability":"nonpayable"},{"type":"function","name":"batchLockRoots","inputs":[{"name":"processIds","type":"uint256[]","internalType":"uint256[]"}],"outputs":[{"name":"totalLocked","type":"uint256","internalType":"uint256"}],"stateMutability":"nonpayable"},{"type":"function","name":"batchRefund","inputs":[{"name":"srpIds","type":"uint256[]","internalType":"uint256[]"}],"outputs":[{"name":"totalRefunded","type":"uint256","internalType":"uint256"}],"stateMutability":"nonpayable"},{"type":"function","name":"batchRelease","inputs":[{"name":"processIds","type":"uint256[]","internalType":"uint256[]"},{"name":"perSrpDeposit","type":"uint256","internalType":"uint256"}],"outputs":[{"name":"totalReleasedSrps","type":"uint256","internalType":"uint256"}],"stateMutability":"nonpayable"},{"type":"function","name":"cancel","inputs":[{"name":"srpId","type":"uint256","internalType":"uint256"}],"outputs":[],"stateMutability":"nonpayable"},{"type":"function","name":"createProcess","inputs":[{"name":"buyer","type":"address","internalType":"address"},{"name":"amount","type":"uint256","internalType":"uint256"},{"name":"token","type":"address","internalType":"address"}],"outputs":[{"name":"processId","type":"uint256","internalType":"uint256"},{"name":"srpId","type":"uint256","internalType":"uint256"}],"stateMutability":"nonpayable"},{"type":"function","name":"grantRootSellerConsent","inputs":[{"name":"rootSeller","type":"address","internalType":"address"},{"name":"approved","type":"bool","internalType":"bool"}],"outputs":[],"stateMutability":"nonpayable"},{"type":"function","name":"lock","inputs":[{"name":"srpId","type":"uint256","internalType":"uint256"}],"outputs":[],"stateMutability":"nonpayable"},{"type":"function","name":"minCleanupBounty","inputs":[],"outputs":[{"name":"","type":"uint256","internalType":"uint256"}],"stateMutability":"view"},{"type":"function","name":"processArchivableAt","inputs":[{"name":"","type":"uint256","internalType":"uint256"}],"outputs":[{"name":"","type":"uint256","internalType":"uint256"}],"stateMutability":"view"},{"type":"function","name":"processCleanupTotalDeposit","inputs":[{"name":"","type":"uint256","internalType":"uint256"}],"outputs":[{"name":"","type":"uint256","internalType":"uint256"}],"stateMutability":"view"},{"type":"function","name":"processCount","inputs":[],"outputs":[{"name":"","type":"uint256","internalType":"uint256"}],"stateMutability":"view"},{"type":"function","name":"processLockedCount","inputs":[{"name":"","type":"uint256","internalType":"uint256"}],"outputs":[{"name":"","type":"uint256","internalType":"uint256"}],"stateMutability":"view"},{"type":"function","name":"processPerSrpDeposit","inputs":[{"name":"","type":"uint256","internalType":"uint256"}],"outputs":[{"name":"","type":"uint256","internalType":"uint256"}],"stateMutability":"view"},{"type":"function","name":"processSrps","inputs":[{"name":"","type":"uint256","internalType":"uint256"},{"name":"","type":"uint256","internalType":"uint256"}],"outputs":[{"name":"","type":"uint256","internalType":"uint256"}],"stateMutability":"view"},{"type":"function","name":"refund","inputs":[{"name":"srpId","type":"uint256","internalType":"uint256"}],"outputs":[],"stateMutability":"nonpayable"},{"type":"function","name":"releaseProcessWithCleanupDeposit","inputs":[{"name":"processId","type":"uint256","internalType":"uint256"},{"name":"perSrpDeposit","type":"uint256","internalType":"uint256"}],"outputs":[{"name":"releasedSrps","type":"uint256[]","internalType":"uint256[]"}],"stateMutability":"nonpayable"},{"type":"function","name":"rootSellerThirdPartyConsent","inputs":[{"name":"","type":"address","internalType":"address"},{"name":"","type":"address","internalType":"address"}],"outputs":[{"name":"","type":"bool","internalType":"bool"}],"stateMutability":"view"},{"type":"function","name":"sellerBatchAdd","inputs":[{"name":"processId","type":"uint256","internalType":"uint256"},{"name":"sellers","type":"address[]","internalType":"address[]"},{"name":"amounts","type":"uint256[]","internalType":"uint256[]"}],"outputs":[{"name":"srpIds","type":"uint256[]","internalType":"uint256[]"}],"stateMutability":"nonpayable"},{"type":"function","name":"sellerNonces","inputs":[{"name":"","type":"address","internalType":"address"}],"outputs":[{"name":"","type":"uint256","internalType":"uint256"}],"stateMutability":"view"},{"type":"function","name":"srpCount","inputs":[],"outputs":[{"name":"","type":"uint256","internalType":"uint256"}],"stateMutability":"view"},{"type":"function","name":"srpFees","inputs":[],"outputs":[{"name":"","type":"address","internalType":"contract SRPFees"}],"stateMutability":"view"},{"type":"function","name":"srpToProcessId","inputs":[{"name":"","type":"uint256","internalType":"uint256"}],"outputs":[{"name":"","type":"uint256","internalType":"uint256"}],"stateMutability":"view"},{"type":"function","name":"srpTotalProcessValue","inputs":[{"name":"","type":"uint256","internalType":"uint256"}],"outputs":[{"name":"","type":"uint256","internalType":"uint256"}],"stateMutability":"view"},{"type":"function","name":"srps","inputs":[{"name":"srpId","type":"uint256","internalType":"uint256"}],"outputs":[{"name":"seller","type":"address","internalType":"address"},{"name":"buyer","type":"address","internalType":"address"},{"name":"amount","type":"uint256","internalType":"uint256"},{"name":"token","type":"address","internalType":"address"},{"name":"state","type":"uint8","internalType":"enum Figaro.State"},{"name":"coordinationCapitalBalance","type":"uint256","internalType":"uint256"}],"stateMutability":"view"},{"type":"event","name":"AddSrpConsent","inputs":[{"name":"thirdPartySeller","type":"address","indexed":true,"internalType":"address"},{"name":"rootSeller","type":"address","indexed":true,"internalType":"address"},{"name":"approved","type":"bool","indexed":false,"internalType":"bool"}],"anonymous":false},{"type":"event","name":"CleanupDepositPlaced","inputs":[{"name":"processId","type":"uint256","indexed":true,"internalType":"uint256"},{"name":"token","type":"address","indexed":true,"internalType":"address"},{"name":"perSrpDeposit","type":"uint256","indexed":false,"internalType":"uint256"},{"name":"processCleanupTotalDeposit","type":"uint256","indexed":false,"internalType":"uint256"},{"name":"buyer","type":"address","indexed":false,"internalType":"address"}],"anonymous":false},{"type":"event","name":"ProcessArchived","inputs":[{"name":"processId","type":"uint256","indexed":true,"internalType":"uint256"},{"name":"caller","type":"address","indexed":true,"internalType":"address"},{"name":"token","type":"address","indexed":false,"internalType":"address"},{"name":"srpIds","type":"uint256[]","indexed":false,"internalType":"uint256[]"},{"name":"payout","type":"uint256","indexed":false,"internalType":"uint256"}],"anonymous":false},{"type":"event","name":"SrpArchived","inputs":[{"name":"processId","type":"uint256","indexed":true,"internalType":"uint256"},{"name":"srpId","type":"uint256","indexed":true,"internalType":"uint256"},{"name":"seller","type":"address","indexed":false,"internalType":"address"},{"name":"buyer","type":"address","indexed":false,"internalType":"address"},{"name":"amount","type":"uint256","indexed":false,"internalType":"uint256"},{"name":"token","type":"address","indexed":false,"internalType":"address"},{"name":"totalProcessValue","type":"uint256","indexed":false,"internalType":"uint256"},{"name":"state","type":"uint8","indexed":false,"internalType":"enum Figaro.State"},{"name":"archivedAt","type":"uint256","indexed":false,"internalType":"uint256"}],"anonymous":false},{"type":"event","name":"SrpCreated","inputs":[{"name":"srpId","type":"uint256","indexed":true,"internalType":"uint256"},{"name":"processId","type":"uint256","indexed":true,"internalType":"uint256"},{"name":"srpHash","type":"bytes32","indexed":true,"internalType":"bytes32"},{"name":"prevSrpId","type":"uint256","indexed":false,"internalType":"uint256"},{"name":"prevHash","type":"bytes32","indexed":false,"internalType":"bytes32"},{"name":"seller","type":"address","indexed":false,"internalType":"address"},{"name":"buyer","type":"address","indexed":false,"internalType":"address"},{"name":"token","type":"address","indexed":false,"internalType":"address"},{"name":"totalProcessValue","type":"uint256","indexed":false,"internalType":"uint256"}],"anonymous":false},{"type":"event","name":"SrpStateChanged","inputs":[{"name":"srpId","type":"uint256","indexed":true,"internalType":"uint256"},{"name":"processId","type":"uint256","indexed":true,"internalType":"uint256"},{"name":"principal","type":"address","indexed":true,"internalType":"address"},{"name":"seller","type":"address","indexed":false,"internalType":"address"},{"name":"buyer","type":"address","indexed":false,"internalType":"address"},{"name":"prevCreationHash","type":"bytes32","indexed":false,"internalType":"bytes32"},{"name":"versionHash","type":"bytes32","indexed":false,"internalType":"bytes32"},{"name":"fromState","type":"uint8","indexed":false,"internalType":"enum Figaro.State"},{"name":"toState","type":"uint8","indexed":false,"internalType":"enum Figaro.State"},{"name":"delta","type":"int256","indexed":false,"internalType":"int256"},{"name":"coordinationCapitalBalance","type":"uint256","indexed":false,"internalType":"uint256"},{"name":"totalProcessValue","type":"uint256","indexed":false,"internalType":"uint256"}],"anonymous":false},{"type":"error","name":"AddressEmptyCode","inputs":[{"name":"target","type":"address","internalType":"address"}]},{"type":"error","name":"AddressInsufficientBalance","inputs":[{"name":"account","type":"address","internalType":"address"}]},{"type":"error","name":"ECDSAInvalidSignature","inputs":[]},{"type":"error","name":"ECDSAInvalidSignatureLength","inputs":[{"name":"length","type":"uint256","internalType":"uint256"}]},{"type":"error","name":"ECDSAInvalidSignatureS","inputs":[{"name":"s","type":"bytes32","internalType":"bytes32"}]},{"type":"error","name":"FailedInnerCall","inputs":[]},{"type":"error","name":"ReentrancyGuardReentrantCall","inputs":[]},{"type":"error","name":"SafeERC20FailedOperation","inputs":[{"name":"token","type":"address","internalType":"address"}]}],"bytecode":{"object":"0x60a03461013057601f615a6e38819003918201601f19168301916001600160401b038311848410176101345780849260409485528339810103126101305780516001600160a01b038116919082900361013057602001519060015f556001600b5580156100f85781156100c657600380546001600160a01b03191691909117905560805260018080556002556040516159259081610149823960805181818161033001528181612b5701528181612bc601528181613dcc01528181613f460152613f880152f35b60405162461bcd60e51b815260206004820152600a60248201526906d617842617463683e360b41b6044820152606490fd5b60405162461bcd60e51b815260206004820152601060248201526f1cdc9c1199595cc81c995c5d5a5c995960821b6044820152606490fd5b5f80fd5b634e487b7160e01b5f52604160045260245ffdfe60806040526004361015610011575f80fd5b5f3560e01c806301b094121461024457806305424c541461023f5780630e1450501461023a57806319fb4abf146102355780631bf5901b14610230578063229df0661461022b578063278ecde1146102265780632b7416de1461022157806340e58ee51461021c578063415b827b14610217578063454570c1146102125780634f1c68e01461020d5780635f99a57c146102085780636563b1d11461020357806366cd33f0146101fe57806371c3cc34146101f9578063848df540146101f45780638c8cf574146101ef5780639576016b146101ea5780639b19ff32146101e55780639c399187146101e0578063aa838987146101db578063ae98bb93146101d6578063bd9c6b16146101d1578063bef4f0bc146101cc578063c005bf28146101c7578063c1a05c8e146101c2578063c82c4083146101bd578063ca0f55e5146101b8578063cfdbf254146101b3578063d2a06675146101ae578063d468fd0b146101a9578063dd467064146101a4578063e4eeded21461019f5763fefa10e81461019a575f80fd5b6131b9565b61314f565b612f1f565b612c7c565b612b7a565b612b40565b612aa0565b61279a565b612770565b61267d565b612365565b6122e1565b611fbc565b611f81565b611f57565b611f3a565b611ed3565b611dfe565b611dd0565b611da6565b611d89565b611d61565b6118dc565b6118bf565b611696565b6115d9565b611415565b611144565b610f6c565b610f42565b610e6a565b610ae2565b6108cb565b610470565b6102c4565b9181601f84011215610279578235916001600160401b038311610279576020808501948460051b01011161027957565b5f80fd5b90602080835192838152019201905f5b81811061029a5750505090565b825184526020938401939092019160010161028d565b9060206102c192818152019061027d565b90565b34610279576060366003190112610279576004356024356001600160401b038111610279576102f7903690600401610249565b906044356001600160401b03811161027957610317903690600401610249565b90610320613d6a565b61032b841515613200565b6103577f0000000000000000000000000000000000000000000000000000000000000000851115613d88565b61036282851461323a565b61036b85613e6d565b9091959294509561037c898b613f6c565b610385896132c9565b985f975b8189106103ad576103a98b61039d60015f55565b604051918291826102b0565b0390f35b6103b889838c613304565b35906103c382611ded565b6103ce8a8588613304565b35916103db83151561331e565b6103e6888a83613fef565b82820180921161043d576104348b8f8f908d86818e888e61042f9661042860019e869d61042189610416816140aa565b9b8c948a8589614195565b9e8f614260565b508b614442565b613394565b52980197610389565b613355565b602060031982011261027957600435906001600160401b0382116102795761046c91600401610249565b9091565b346102795761047e36610442565b90610487613d6a565b5f91610494811515613200565b61049d81613dc6565b6104a6816132c9565b906104b0816132c9565b915f905f5b83811061078c57506104c6836132c9565b935f5b84811061070957505f5b8381106106b657505050505f5b818110610504576103a9856104f460015f55565b6040519081529081906020820190565b806105126001928487613304565b356005610527825f52600560205260405f2090565b01546105686105766004610543855f52600560205260405f2090565b0154604051928391602083019586909160609282526003602083015260408201520190565b03601f19810183528261328c565b5190209061058c815f52600660205260405f2090565b54905f5160206158d05f395f51905f526105be6105b1835f52600560205260405f2090565b546001600160a01b031690565b936105d46105b1845f52600560205260405f2090565b946106ad8a6105fd8a6105ef885f52600560205260405f2090565b01546001600160a01b031690565b936106276106218b60056106198b5f52600560205260405f2090565b015494613394565b5161342a565b600461063b895f52600560205260405f2090565b015491610650895f52600860205260405f2090565b54936040519788978f8060a01b03169c886001600160a01b039182168152911660208201526040810191909152606081019190915260026080820152610120810194939261010092600360a084015260c083015260e08201520152565b0390a4016104e0565b806106c360019284613394565b518015610703576106fd90336106f86106ec6106df868a613394565b516001600160a01b031690565b6001600160a01b031690565b6145ce565b016104d3565b506106fd565b96610785886001925f600461077e610722858c8f613304565b358c6107448461073a845f52600560205260405f2090565b0154978892613394565b52610770600361075c835f52600560205260405f2090565b01805460ff60a01b1916600360a01b179055565b5f52600560205260405f2090565b0155613387565b97016104c9565b610797818588613304565b356107ba336107b46106ec6105b1855f52600560205260405f2090565b146133a8565b6107f060026107e160036107d6855f52600560205260405f2090565b015460a01c60ff1690565b6107ea81611e76565b146133e1565b600461081b61080c60036105ef855f52600560205260405f2090565b925f52600560205260405f2090565b0154905f6001600160a01b038216815b878110610882575b505015610845575b50506001016104b5565b9361087a9161086a6001949661085b8488613394565b6001600160a01b039091169052565b6108748289613394565b5261341c565b92905f61083b565b816108936106ec6106df848b613394565b146108a05760010161082b565b9150506108c16108ba846108b4848c613394565b51613387565b9189613394565b5260015f80610833565b34610279576020366003190112610279576004356108e7613d6a565b6108f9815f52600460205260405f2090565b90815490610908821515613583565b61091182613dc6565b61092f60036105ef6107706109258761318d565b90549060031b1c90565b6001600160a01b03811692835f5b86838210610a6f575050505061096f61095e835f52600e60205260405f2090565b548015159081610a64575b5061360c565b610981825f52600c60205260405f2090565b54918215159261099084613658565b5f5b86548110156109b957806109b36109ae6109256001948b6131a4565b614653565b01610992565b507fdec94aa659f8b6c0b0679d8d5703d4ebeb2c828c7875f7409eb77959d167e3a190866103a996828254976109ff6109fa885f52600460205260405f2090565b6136c4565b5f878152600760209081526040808320839055600c8252808320839055600d8252808320839055600e909152812055610a52575b5050610a466040519283923397846136f4565b0390a36104f460015f55565b610a5d9133906145ce565b8782610a33565b90504210155f610969565b600192610ac06106ec60036105ef610a8d61092588610ac6986131a4565b610770610aa6846107d6845f52600560205260405f2090565b610aaf81611e76565b848114908115610ace575b506135b9565b14613605565b01849061093d565b60049150610adb81611e76565b145f610aba565b3461027957610af036610442565b90610af9613d6a565b5f91610b06811515613200565b610b0f81613dc6565b610b18816132c9565b90610b22816132c9565b915f905f5b838110610d795750610b38836132c9565b935f5b848110610d1557505f5b838110610ce057505050505f5b818110610b66576103a9856104f460015f55565b80610b746001928487613304565b356005610b89825f52600560205260405f2090565b0154610568610bca6004610ba5855f52600560205260405f2090565b0154604051928391602083019586909160609282526004602083015260408201520190565b51902090610be0815f52600660205260405f2090565b54905f5160206158d05f395f51905f52610c056105b1835f52600560205260405f2090565b93610c1b6105b1845f52600560205260405f2090565b94610cd78a610c368a6105ef885f52600560205260405f2090565b93610c526106218b60056106198b5f52600560205260405f2090565b6004610c66895f52600560205260405f2090565b015491610c7b895f52600860205260405f2090565b54936040519788978f8060a01b03169c886001600160a01b03918216815291166020820152604081019190915260608101919091525f6080820152610120810194939261010092600460a084015260c083015260e08201520152565b0390a401610b52565b80610ced60019284613394565b518015610d0f57610d0990336106f86106ec6106df868a613394565b01610b45565b50610d09565b96610d72886001925f600461077e610d2e858c8f613304565b358c610d468461073a845f52600560205260405f2090565b526107706003610d5e835f52600560205260405f2090565b01805460ff60a01b1916600160a21b179055565b9701610b3b565b610d84818588613304565b35610da1336107b46106ec6105b1855f52600560205260405f2090565b610dca610dbb60036107d6845f52600560205260405f2090565b610dc481611e76565b156133e1565b6004610de661080c60036105ef855f52600560205260405f2090565b0154905f6001600160a01b038216815b878110610e2e575b505015610e10575b5050600101610b27565b93610e269161086a6001949661085b8488613394565b92905f610e06565b81610e3f6106ec6106df848b613394565b14610e4c57600101610df6565b915050610e606108ba846108b4848c613394565b5260015f80610dfe565b3461027957604036600319011261027957602435600435610e89613d6a565b805f52600460205260405f2091610ea283541515613583565b610ec3610ebc6106ec60016105ef6107706109258961318d565b3314613748565b610ed1600b54821015613786565b610edb818361476f565b9091610ee6836132c9565b945f935f5b818110610f0c576103a988610f038989898989614a44565b61039d60015f55565b80610f30610f1f6109256001948d6131a4565b97610f2a898761486a565b90613387565b96610f3b828b613394565b5201610eeb565b34610279576020366003190112610279576004355f526007602052602060405f2054604051908152f35b3461027957602036600319011261027957600435610f88613d6a565b610f9181614b1d565b610fad60026107e160036107d6855f52600560205260405f2090565b610fbf815f52600660205260405f2090565b54610fd760036107d6845f52600560205260405f2090565b915f5160206158d05f395f51905f526004610ffa835f52600560205260405f2090565b015493611014600361075c855f52600560205260405f2090565b5f6004611029855f52600560205260405f2090565b01558461111a575b6005611045845f52600560205260405f2090565b01546105686110616004610543875f52600560205260405f2090565b5190209461110c61107d6105b1865f52600560205260405f2090565b916110936105b1875f52600560205260405f2090565b976110ab60016105ef895f52600560205260405f2090565b946110cb60056110c38a5f52600560205260405f2090565b01549361342a565b9060046110e08a5f52600560205260405f2090565b0154926110f58a5f52600860205260405f2090565b549460405198899860018060a01b03169d8961343a565b0390a461111860015f55565b005b61113f856111386106ec60036105ef885f52600560205260405f2090565b33906145ce565b611031565b346102795761115236610442565b61115a613d6a565b5f91611167821515613200565b61117082613dc6565b5f915f5f5f5b83811061131057508061118d611192921515613200565b613dc6565b806112f6575b509291905f935b8085106111b3576103a9846104f460015f55565b9091926111c1858385613304565b3590846111d6835f52600460205260405f2090565b928354936111e3856132c9565b905f5b8681106112cc5750505f5b8581106112a9575091817fdec94aa659f8b6c0b0679d8d5703d4ebeb2c828c7875f7409eb77959d167e3a16001969461123661129e97955f52600c60205260405f2090565b549061124d6109fa855f52600460205260405f2090565b5f848152600760205260408120555f848152600c60205260408120555f848152600d60205260408120555f848152600e60205260408120556112966040519283923397846137ca565b0390a3613387565b94019392919061119f565b819293506112c26112bc82600194613394565b51614653565b01908792916111f1565b81929394506112e0610925826001946131a4565b6112ea8286613394565b520190889392916111e6565b61130a90336001600160a01b0386166145ce565b5f611198565b90919461131e828587613304565b3595611332875f52600460205260405f2090565b96875492611341841515613583565b61135560036105ef6107706109258d61318d565b906001600160a01b038116806113f8575050975b5f5b8481106113c4575050916113b76113bd926113a58561139761095e6001985f52600e60205260405f2090565b5f52600c60205260405f2090565b54906113b2821515613658565b613387565b94613387565b9101611176565b806113f26113df60036105ef610a8d610925600197896131a4565b60a084901b8490038d8116911614613605565b0161136b565b909991611410916001600160a01b0390911614613605565b611369565b3461027957602036600319011261027957600435611431613d6a565b61143a81614b1d565b611454610dbb60036107d6845f52600560205260405f2090565b611466815f52600660205260405f2090565b5461147e60036107d6845f52600560205260405f2090565b915f5160206158d05f395f51905f5260046114a1835f52600560205260405f2090565b0154938415156114b0816137f4565b6114c76003610d5e865f52600560205260405f2090565b5f60046114dc865f52600560205260405f2090565b01556115b6575b60056114f7845f52600560205260405f2090565b01546105686115136004610ba5875f52600560205260405f2090565b5190209461110c61152f6105b1865f52600560205260405f2090565b916115456105b1875f52600560205260405f2090565b9761155d60016105ef895f52600560205260405f2090565b9461157560056110c38a5f52600560205260405f2090565b90600461158a8a5f52600560205260405f2090565b01549261159f8a5f52600860205260405f2090565b549460405198899860018060a01b03169d8961348f565b6115d4856111386106ec60036105ef885f52600560205260405f2090565b6114e3565b34610279576020366003190112610279576004355f52600d602052602060405f2054604051908152f35b6060600319820112610279576004356001600160401b038111610279578161162d91600401610249565b929092916024356001600160401b038111610279578161164f91600401610249565b92909291604435906001600160401b0382116102795761046c91600401610249565b90916116886102c19360408452604084019061027d565b91602081840391015261027d565b34610279576116a436611603565b6116b395929195949394613d6a565b6116be841515613200565b6116c784613dc6565b838214806118b6575b6116d99061323a565b6116e2846132c9565b946116ec856132c9565b965f5b86811061185057505f5b86811061177c578888885f5b81811061172657505061171760015f55565b6103a960405192839283611671565b8061177561173660019387613394565b51611755600261174e835f52600560205260405f2090565b0154613699565b90339061176f60036105ef835f52600560205260405f2090565b90614260565b5001611705565b6002546117888161341c565b60025580611796838b613394565b526117a2828989613304565b6117ab90613314565b6117b6838887613304565b356117c2848887613304565b6117cb90613314565b6117d6858a89613304565b359133936117e49486614195565b90816117f0848d613394565b526117fc838887613304565b3561180690613699565b90611812848b8b613304565b61181b90613314565b611826858988613304565b61182f90613314565b9061183b868b8a613304565b35923390611848966142d1565b6001016116f9565b8061187f61186c6106ec6118676001958c8c613304565b613314565b611877811515613833565b331415613870565b61189561188d828887613304565b35151561331e565b6118b06118a96106ec611867848988613304565b15156138ac565b016116ef565b508084146116d0565b34610279575f366003190112610279576020600154604051908152f35b34610279576118ea36610442565b6118f2613d6a565b5f906118ff811515613200565b61190881613dc6565b611911816132c9565b61191a826132c9565b5f925f5b818110611c3d5750611931841515613200565b61193a816132c9565b955f5f925b808410611ba457505050505f5b838110611b6b5785855f5b82518110156119ba578061196d60019285613394565b5180156119b4576119ab60046119a2611993600261174e865f52600560205260405f2090565b935f52600560205260405f2090565b01918254613387565b90555b01611957565b506119ae565b505f5b8251811015611b5e57806119d360019285613394565b518015611b585760056119ee825f52600560205260405f2090565b0154610568611a2f6004611a0a855f52600560205260405f2090565b0154604051928391602083019586909160609282526001602083015260408201520190565b519020611a49600261174e845f52600560205260405f2090565b915f5160206158d05f395f51905f52611a6a825f52600660205260405f2090565b5492611a82876105ef855f52600560205260405f2090565b611b4e611a9a6105b1865f52600560205260405f2090565b96611ab18a6105ef885f52600560205260405f2090565b936005611ac6885f52600560205260405f2090565b0154916004611add895f52600560205260405f2090565b015491611af2895f52600860205260405f2090565b54936040519788978f8060a01b03169c886001600160a01b03918216815291166020820152604081019190915260608101919091525f6080820152610120810194939261010092600160a084015260c083015260e08201520152565b0390a45b016119bd565b50611b52565b6103a9826104f460015f55565b80611b7860019284613394565b518015611b9e57611b969033611b916106df8589613394565b614c25565b505b0161194c565b50611b98565b90919296611c33600191611bb98a8588613304565b35611c14611bda610925611bd5845f52600460205260405f2090565b61318d565b91611c066003611bf2855f52600560205260405f2090565b01805460ff60a01b1916600160a01b179055565b5f52600760205260405f2090565b611c1e815461341c565b9055610874611c2c8761341c565b968d613394565b970192919061193f565b611c6e610925611c62611c5384868c979c613304565b355f52600460205260405f2090565b611bd5815415156138e9565b611c92611c8b6106ec60016105ef855f52600560205260405f2090565b3314613927565b611cac610dbb60036107d6845f52600560205260405f2090565b611ccb600261174e61199360036105ef865f52600560205260405f2090565b905f6001600160a01b038216815b898110611d1e575b505015611cf6575b505060010195909561191e565b95611d1691611d0c6001949861085b848a613394565b6108748287613394565b94905f611ce9565b81611d2f6106ec6106df848d613394565b14611d3c57600101611cd9565b915050611d57611d50846108b4848a613394565b9187613394565b5260015f80611ce1565b34610279575f366003190112610279576003546040516001600160a01b039091168152602090f35b34610279575f366003190112610279576020600b54604051908152f35b34610279576020366003190112610279576004355f52600e602052602060405f2054604051908152f35b34610279575f366003190112610279576020600254604051908152f35b6001600160a01b0381160361027957565b3461027957604036600319011261027957602060ff611e56600435611e2281611ded565b60243590611e2f82611ded565b60018060a01b03165f526009845260405f209060018060a01b03165f5260205260405f2090565b54166040519015158152f35b634e487b7160e01b5f52602160045260245ffd5b60051115611e8057565b611e62565b906005821015611e805752565b6001600160a01b039182168152918116602083015260408201929092529116606082015260c0810193929160a09190611ecf906080830190611e85565b0152565b34610279576020366003190112610279576004355f9081526005602052604090819020805460018201546002830154600384015460049094015494519485946103a994919360a082901c60ff16936001600160a01b03928316939092918216911687611e92565b34610279575f36600319011261027957602060405162093a808152f35b34610279576020366003190112610279576004355f526008602052602060405f2054604051908152f35b3461027957602036600319011261027957600435611f9e81611ded565b60018060a01b03165f52600a602052602060405f2054604051908152f35b3461027957606036600319011261027957600435611fd981611ded565b60243560443591611fe983611ded565b611ff1613d6a565b6120096001600160a01b038216611877811515613833565b61201482151561331e565b6001600160a01b0383169061202a8215156138ac565b6002549261203f61203a8561341c565b600255565b61204d818681853389614195565b9461205782613699565b60035461206c906001600160a01b03166106ec565b6040516399a5d74760e01b8152600481018390529190602090839060249082905afa90811561221b576120a6925f92612293575b50613387565b604051636eb1769f60e11b8152336004820152306024820152602081604481895afa90811561221b575f91612274575b506040516370a0823160e01b81523360048201526020816024818a5afa801561221b576001915f91612255575b5010159182612241575b5050612152575b612138935061212282613699565b9261212f8433848a614260565b503386886142d1565b61214160015f55565b604080519182526020820192909252f35b6040516370a0823160e01b815230600482015293602085602481845afa94851561221b575f95612220575b50612189303383614f60565b6040516370a0823160e01b8152306004820152602081602481855afa95861561221b57612138966121c1925f916121ec575b50613956565b6121cd60018214613963565b806121da575b5050612114565b6121e59133906145ce565b5f806121d3565b61220e915060203d602011612214575b612206818361328c565b81019061392e565b5f6121bb565b503d6121fc565b61393d565b61223a91955060203d60201161221457612206818361328c565b935f61217d565b61224c919250613369565b11155f8061210d565b61226e915060203d60201161221457612206818361328c565b5f612103565b61228d915060203d60201161221457612206818361328c565b5f6120d6565b6122ad91925060203d60201161221457612206818361328c565b905f6120a0565b9181601f84011215610279578235916001600160401b038311610279576020838186019501011161027957565b34610279576060366003190112610279576004356001600160401b038111610279576101006003198236030112610279576024356001600160401b038111610279576123319036906004016122b4565b9190604435916001600160401b038311610279576103a99361235a6104f49436906004016122b4565b9390926004016139d5565b34610279576040366003190112610279576004356001600160401b03811161027957612395903690600401610249565b90602435906123a2613d6a565b5f916123af841515613200565b6123b884613dc6565b5f915f915f5f600b548310155b88821061254d5750508061118d6123dd921515613200565b5f955f5b81811061243f5750505050836103a994612425575b5080612408575b50506104f460015f55565b61241e91309033906001600160a01b0316614fa5565b5f806123fd565b61243990336001600160a01b0385166145ce565b5f6123f6565b61244a818386613304565b3561245d815f52600460205260405f2090565b8054905f905b82821061251c5750509061247a60019392866136b1565b61248c825f52600c60205260405f2090565b55846124a0825f52600d60205260405f2090565b556124aa42613377565b6124bc825f52600e60205260405f2090565b556124cf815f52600c60205260405f2090565b54604080518781526020810192909252339082015260a084901b849003891691907f24c4d1b5f695c04267b4d15eec720a4772017e05da66e8048b69ae625fdb049e90606090a3016123e1565b90999a61254561253f600192610f2a6125398f61092590886131a4565b8861486a565b9c61341c565b9a0190612463565b9094919561255f611c53878b88613304565b9283549161257661092584151596611bd588613583565b90612594610ebc6106ec60016105ef865f52600560205260405f2090565b6001600160a01b03811680612659575050826125c060036105ef6125c6945f52600560205260405f2090565b99613387565b936125d084613786565b856125db84826136b1565b938261264f575b8261263a575b5050612602576001916125fa91613387565b9501906123c5565b60405162461bcd60e51b815260206004820152601060248201526f6465706f736974206f766572666c6f7760801b6044820152606490fd5b61264691925084613c52565b1415855f6125e8565b81151592506125e2565b996113b285929b610ac06106ec60036105ef6125c6985f52600560205260405f2090565b346102795760603660031901126102795760243560043561269d82611ded565b6044356126a8613d6a565b6126b381151561331e565b6001600160a01b0383161561272b576126e5906126cf83613e6d565b945095909280926126df89613f29565b89613fef565b83830180931161043d576103a9966127229561270e8585612705826140aa565b9886868d614195565b9761271b8784878c614260565b5088614442565b6104f460015f55565b60405162461bcd60e51b815260206004820152601960248201527f7468697264506172747953656c6c6572207265717569726564000000000000006044820152606490fd5b34610279576020366003190112610279576004355f526006602052602060405f2054604051908152f35b34610279576127a836610442565b6127b0613d6a565b5f6127bc821515613200565b6127c582613dc6565b6127d8610925611c62611c5385876132fb565b9261280c60036105ef60018060a01b036127ff60016105ef8a5f52600560205260405f2090565b1696610770883314613927565b935f905f5b85811061293957505080612829612837921515613200565b61283281613dc6565b6132c9565b925f905f5b81811061289657505050505f5b825181101561286e578061286861286260019386613394565b516153b9565b01612849565b5061287e9061288d933390614c25565b50612888816153ff565b615460565b61111860015f55565b6128a4611c53828487613304565b80549060015b8281106128bc5750505060010161283c565b886128ca61092583856131a4565b6128e160036107d6835f52600560205260405f2090565b6128ea81611e76565b156128fa575b50506001016128aa565b98610f2a600261174e8c6001969d6129208d61291a61292f999f9161341c565b9e613394565b525f52600560205260405f2090565b979050885f6128f0565b612947611c53828887613304565b8054906129558215156138e9565b61297d600161296e60036107d66107706109258761318d565b61297781611e76565b14613e2f565b60015b82811061299257505050600101612811565b61299f61092582846131a4565b6129b660036107d6835f52600560205260405f2090565b6129bf81611e76565b156129ce575b50600101612980565b856129ec6106ec60016105ef859b969b5f52600560205260405f2090565b03612a655760036105ef612a08925f52600560205260405f2090565b6001600160a01b038b8116911603612a2c57612a2560019161341c565b95906129c5565b60405162461bcd60e51b81526020600482015260116024820152700e8ded6cadce640daeae6e840dac2e8c6d607b1b6044820152606490fd5b60405162461bcd60e51b815260206004820152600960248201526827b7363ca13abcb2b960b91b6044820152606490fd5b8015150361027957565b3461027957604036600319011261027957600435612abd81611ded565b60243590612aca82612a96565b335f526009602052612b0482612af38360405f209060018060a01b03165f5260205260405f2090565b9060ff801983541691151516179055565b60405191151582526001600160a01b03169033907fc96013b75dbb59ec6c297e16fb38d8b60cbdf8cfd3fbb4435a10e7f63b1a4ebe90602090a3005b34610279575f3660031901126102795760206040517f00000000000000000000000000000000000000000000000000000000000000008152f35b34610279576040366003190112610279576004356001600160401b03811161027957612baa903690600401610249565b602435612bb681612a96565b612bc1821515613200565b612bed7f0000000000000000000000000000000000000000000000000000000000000000831115613d88565b5f5b828110612bf857005b80612c066001928587613304565b35612c1081611ded565b335f526009602052612c3984612af38360405f209060018060a01b03165f5260205260405f2090565b604051841515815260a084901b849003919091169033907fc96013b75dbb59ec6c297e16fb38d8b60cbdf8cfd3fbb4435a10e7f63b1a4ebe90602090a301612bef565b3461027957612c8a36611603565b9190612c9895939495613d6a565b612ca3861515613200565b612cac86613dc6565b612cb7868314613c70565b612cc2868414613cb3565b612ccb866132c9565b612cd4876132c9565b5f915f5b898110612e7357505f5b838110612e4b5750505050612cf6866132c9565b945f5b878110612d0d576103a98761039d60015f55565b612d18818988613cff565b80356020820191612d2883613314565b9260408201359384612d3a9185615022565b905082959294612d4b898d8c613d53565b3690612d5692613bdc565b612d619030836151cf565b612d6a90613c12565b612d7385613314565b9060c00135612d8191615336565b612d8a81613699565b948286938383612da2885f52600460205260405f2090565b612db4895f52600460205260405f2090565b54612dbe90613948565b612dc7916131a4565b905460039190911b1c9b612dda8a613314565b93612de5948a614195565b98612def87613314565b90612dfa968b614442565b612e0381613314565b50612e0f858a89613d53565b3690612e1a92613bdc565b612e2490846153a1565b612e2d90613314565b612e379284614260565b50612e428289613394565b52600101612cf9565b80612e6d612e5b60019385613394565b51612e668387613394565b5190613f6c565b01612ce2565b612e7e818b8a613cff565b612e8d6040820135151561331e565b612e9d60a0820135421115613b8b565b355f5f5b868110612ede575b5015612eb9575b50600101612cd8565b84612ed791612ecb6001949786613394565b52826108748287613394565b9390612eb0565b82612ee98287613394565b5114612ef757600101612ea1565b9050612f16612f0f612f098388613394565b5161341c565b9186613394565b5260015f612ea9565b3461027957602036600319011261027957600435612f3b613d6a565b612f4481615524565b612f4d81615546565b612f64600261174e835f52600560205260405f2090565b90612f7c60036105ef835f52600560205260405f2090565b600354909190612f94906001600160a01b03166106ec565b6040516399a5d74760e01b81526004810185905290602090829060249082905afa801561221b57613132575b505f5160206158d05f395f51905f52612fe660036107d6845f52600560205260405f2090565b93612ffe6003611bf2855f52600560205260405f2090565b61303b81613014855f52600660205260405f2090565b5495613028875f52600760205260405f2090565b613032815461341c565b90553390614c25565b506004613050845f52600560205260405f2090565b0161305c828254613387565b90556005613072845f52600560205260405f2090565b015461056861308e6004611a0a875f52600560205260405f2090565b5190209461110c6130ac60016105ef875f52600560205260405f2090565b916130c26105b1875f52600560205260405f2090565b976130da60016105ef895f52600560205260405f2090565b9460056130ef895f52600560205260405f2090565b01549260046131068a5f52600560205260405f2090565b01549261311b8a5f52600860205260405f2090565b549460405198899860018060a01b03169d896134e4565b61314a9060203d60201161221457612206818361328c565b612fc0565b34610279576020366003190112610279576004355f52600c602052602060405f2054604051908152f35b634e487b7160e01b5f52603260045260245ffd5b80541561319f575f5260205f20905f90565b613179565b805482101561319f575f5260205f2001905f90565b3461027957604036600319011261027957600435602435905f52600460205260405f208054821015610279576020916131f1916131a4565b90549060031b1c604051908152f35b1561320757565b60405162461bcd60e51b815260206004820152600b60248201526a0cadae0e8f240c4c2e8c6d60ab1b6044820152606490fd5b1561324157565b60405162461bcd60e51b815260206004820152600f60248201526e0d8cadccee8d040dad2e6dac2e8c6d608b1b6044820152606490fd5b634e487b7160e01b5f52604160045260245ffd5b90601f801991011681019081106001600160401b038211176132ad57604052565b613278565b6001600160401b0381116132ad5760051b60200190565b906132d3826132b2565b6132e0604051918261328c565b82815280926132f1601f19916132b2565b0190602036910137565b901561319f5790565b919081101561319f5760051b0190565b356102c181611ded565b1561332557565b60405162461bcd60e51b81526020600482015260086024820152670616d6f756e743e360c41b6044820152606490fd5b634e487b7160e01b5f52601160045260245ffd5b906001820180921161043d57565b9062093a80820180921161043d57565b9190820180921161043d57565b805182101561319f5760209160051b010190565b156133af57565b60405162461bcd60e51b815260206004820152600a60248201526927b7363ca9b2b63632b960b11b6044820152606490fd5b156133e857565b60405162461bcd60e51b815260206004820152600c60248201526b496e76616c6964537461746560a01b6044820152606490fd5b5f19811461043d5760010190565b600160ff1b811461043d575f0390565b949098979693610100969361347a9361012088019b60018060a01b0316885260018060a01b03166020880152604087015260608601526080850190611e85565b600360a084015260c083015260e08201520152565b94909897969361010096936134cf9361012088019b60018060a01b0316885260018060a01b03166020880152604087015260608601526080850190611e85565b600460a084015260c083015260e08201520152565b94909897969361010096936135249361012088019b60018060a01b0316885260018060a01b03166020880152604087015260608601526080850190611e85565b600160a084015260c083015260e08201520152565b6001600160a01b03918216815291166020820152604081019190915260608101919091525f60808201526101208101949392610100925f60a084015260c083015260e08201520152565b1561358a57565b60405162461bcd60e51b81526020600482015260076024820152666e6f207372707360c81b6044820152606490fd5b156135c057565b60405162461bcd60e51b815260206004820152601960248201527f616c6c2073727073206d757374206265207465726d696e616c000000000000006044820152606490fd5b15612a2c57565b1561361357565b60405162461bcd60e51b815260206004820152601a60248201527f7465726d696e616c2074696d657374616d70206d697373696e670000000000006044820152606490fd5b1561365f57565b60405162461bcd60e51b81526020600482015260126024820152711b9bc818db19585b9d5c0819195c1bdcda5d60721b6044820152606490fd5b600181901b91906001600160ff1b0381160361043d57565b8181029291811591840414171561043d57565b8054905f8155816136d3575050565b5f5260205f20908101905b8181106136e9575050565b5f81556001016136de565b939291606085019160018060a01b0316855260606020860152805480925260808501905f5260205f20915f5b81811061373257505060409150930152565b8354835260019384019360209093019201613720565b1561374f57565b60405162461bcd60e51b815260206004820152600f60248201526e37b7363c903937b7ba10313abcb2b960891b6044820152606490fd5b1561378d57565b60405162461bcd60e51b81526020600482015260156024820152746465706f7369742062656c6f77206d696e696d756d60581b6044820152606490fd5b9392916137ef9060409260018060a01b0316865260606020870152606086019061027d565b930152565b156137fb57565b60405162461bcd60e51b815260206004820152601060248201526f16995c9bd0d85b98d95b105b5bdd5b9d60821b6044820152606490fd5b1561383a57565b60405162461bcd60e51b815260206004820152600e60248201526d189d5e595c881c995c5d5a5c995960921b6044820152606490fd5b1561387757565b60405162461bcd60e51b815260206004820152600d60248201526c39b2b63632b91e9eb13abcb2b960991b6044820152606490fd5b156138b357565b60405162461bcd60e51b815260206004820152600e60248201526d1d1bdad95b881c995c5d5a5c995960921b6044820152606490fd5b156138f057565b60405162461bcd60e51b815260206004820152600f60248201526e70726f63657373206d697373696e6760881b6044820152606490fd5b15612a6557565b90816020910312610279575190565b6040513d5f823e3d90fd5b5f1981019190821161043d57565b9190820391821161043d57565b1561396a57565b60405162461bcd60e51b815260206004820152603960248201527f746f6b656e206e6f7420737570706f727465643a206665652d6f6e2d7472616e60448201527f73666572206f72206e6f6e7374616e64617264204552433230000000000000006064820152608490fd5b9092613a4092946139e4613d6a565b6040830135956139f587151561331e565b613a0560a0850135421115613b8b565b833590613a1182613f29565b613a606020860195613a4c613a47613a328c613a2c8b613314565b88615022565b9c929d919790503691613bdc565b30846151cf565b613c12565b60c0613a5788613314565b91013590615336565b613a6986613699565b600354909690613a81906001600160a01b03166106ec565b6040516399a5d74760e01b8152600481018990529290602090849060249082905afa90811561221b57613abf8a928a955f91613b6c575b5085613387565b50808383613ad5885f52600460205260405f2090565b613ae7895f52600460205260405f2090565b54613af190613948565b613afa916131a4565b905460039190911b1c9d613b0d8c613314565b93613b18948a614195565b9a613b2289613314565b90613b2d968d614442565b613b3683613314565b503690613b4292613bdc565b613b4c90846153a1565b613b5590613314565b613b5f9284614260565b5090613b6a60015f55565b565b613b85915060203d60201161221457612206818361328c565b5f613ab8565b15613b9257565b60405162461bcd60e51b8152602060048201526007602482015266195e1c1a5c995960ca1b6044820152606490fd5b6001600160401b0381116132ad57601f01601f191660200190565b929192613be882613bc1565b91613bf6604051938461328c565b829481845281830111610279578281602093845f960137010152565b15613c1957565b60405162461bcd60e51b8152602060048201526011602482015270696e76616c6964207369676e617475726560781b6044820152606490fd5b8115613c5c570490565b634e487b7160e01b5f52601260045260245ffd5b15613c7757565b60405162461bcd60e51b81526020600482015260146024820152736c656e677468206d69736d61746368207369677360601b6044820152606490fd5b15613cba57565b60405162461bcd60e51b815260206004820152601760248201527f6c656e677468206d69736d61746368207065726d6974730000000000000000006044820152606490fd5b919081101561319f5760051b8101359060fe1981360301821215610279570190565b903590601e198136030182121561027957018035906001600160401b0382116102795760200191813603831361027957565b9082101561319f5761046c9160051b810190613d21565b60025f5414613d795760025f55565b633ee5aeb560e01b5f5260045ffd5b15613d8f57565b60405162461bcd60e51b815260206004820152600f60248201526e626174636820746f6f206c6172676560881b6044820152606490fd5b613b6a907f00000000000000000000000000000000000000000000000000000000000000001015613d88565b15613df957565b60405162461bcd60e51b815260206004820152600e60248201526d27b7363ca937b7ba29b2b63632b960911b6044820152606490fd5b15613e3657565b60405162461bcd60e51b815260206004820152600f60248201526e1c9bdbdd081b9bdd081b1bd8dad959608a1b6044820152606490fd5b5f52600460205260405f208054613e858115156138e9565b613e8e8261318d565b90549060031b1c908193613f12610925613eb560016105ef875f52600560205260405f2090565b95613f0c613f0660036105ef613ed66105b18b5f52600560205260405f2090565b99613eeb336001600160a01b038d1614613df2565b610770600161296e856107d6855f52600560205260405f2090565b95613948565b906131a4565b90613f25825f52600860205260405f2090565b5490565b5f52600460205260405f20546001810180911161043d57613b6a907f00000000000000000000000000000000000000000000000000000000000000001015613d88565b5f52600460205260405f205490810180911161043d57613b6a907f00000000000000000000000000000000000000000000000000000000000000001015613d88565b15613fb557565b60405162461bcd60e51b815260206004820152601260248201527139b2b63632b91e9eb937b7ba29b2b63632b960711b6044820152606490fd5b60ff9261404592916001600160a01b03908116916140109116821415613870565b6140256001600160a01b038316821415613fae565b5f52600960205260405f209060018060a01b03165f5260205260405f2090565b54161561404e57565b60405162461bcd60e51b815260206004820152602e60248201527f726f6f742073656c6c6572206e6f7420617070726f766564206279207468697260448201526d32103830b93a3c9039b2b63632b960911b6064820152608490fd5b6001600160ff1b038116810361043d5760011b90565b815181546001600160a01b039182166001600160a01b031991821617835560208401516001840180549184169183169190911790556040840151600284015560608401516003840180549190931691161781556080830151919290919061412682611e76565b6005821015611e8057825460ff60a01b191660a092831b60ff60a01b1617909255810151600483015560c0015160059190910155565b8054680100000000000000008110156132ad5761417e916001820181556131a4565b819291549060031b91821b915f19901b1916179055565b9092939594600154936141a78561341c565b60015584976040519060e08201908282106001600160401b038311176132ad5760409182526001600160a01b0393841683529583166020830152810196909652929092166060850152613b6a9361425b9290614226905f60808201525f60a08201525f60c0820152614221865f52600560205260405f2090565b6140c0565b614238845f52600860205260405f2090565b558061424c845f52600660205260405f2090565b555f52600460205260405f2090565b61415c565b92809261426c92614c25565b915f526005602052600460405f20015590565b94929091609c96949286526001600160601b03199060601b1660208601526001600160601b03199060601b16603485015260488401526001600160601b03199060601b166068830152607c8201520190565b93919561443d905f5160206158d05f395f51905f5294929660056142fd5f5f52600560205260405f2090565b01549488887f4c59a0d7504f83f7933b2bf2250622f2c2189edc8345c80b75eb9fc5d9fceed18c896143b78a8761435a6002614341895f52600560205260405f2090565b01546105688c60405194859360208501978b8b8a61427f565b519020978897886005614375895f52600560205260405f2090565b0155604080515f815260208101959095526001600160a01b03958616908501528c85166060850152909316608083015260a082019290925290819060c0820190565b0390a46105686143f860046143d48a5f52600560205260405f2090565b0154604051928391602083019586909160609282525f602083015260408201520190565b519020906004614410885f52600560205260405f2090565b015490614425885f52600860205260405f2090565b549260405196879660018060a01b038d169c88613539565b0390a4565b94909593868685839a97969596614461885f52600560205260405f2090565b600501549788918761447b865f52600560205260405f2090565b600201546040518091846020830194614497928d8b8b8961427f565b03601f19810182526144a9908261328c565b519020978897886144c2885f52600560205260405f2090565b600501556040805194855260208501959095526001600160a01b0395861694840194909452928416606083015291909216608083015260a08201527f4c59a0d7504f83f7933b2bf2250622f2c2189edc8345c80b75eb9fc5d9fceed19060c090a4614535855f52600560205260405f2090565b60040154906040518091602082019361455f9185909160609282525f602083015260408201520190565b03601f1981018252614571908261328c565b51902092614587855f52600560205260405f2090565b6004015461459d865f52600860205260405f2090565b5491604051958695600160a01b6001900386169a6145bb9688613539565b035f5160206158d05f395f51905f5291a4565b60405163a9059cbb60e01b60208201526001600160a01b039092166024830152604480830193909352918152613b6a9161460960648361328c565b61556a565b6001600160a01b0391821681529181166020830152604082019290925291166060820152608081019190915260e0810193929160c09190611ecf9060a0830190611e85565b61476c5f91808352600660205280604084205481855260056020527fc41be8adfb5fa03cccc4802a17aa0bf69f65020eaeede3bb40a7201d9f8666976146a2604087205460018060a01b031690565b6146b960016105ef865f52600560205260405f2090565b61472360026146d0875f52600560205260405f2090565b0154926146ea60036105ef895f52600560205260405f2090565b6146fc885f52600860205260405f2090565b5461471460036107d68b5f52600560205260405f2090565b9160405196879642958861460e565b0390a361475e61473b825f52600560205260405f2090565b60055f918281558260018201558260028201558260038201558260048201550155565b5f52600660205260405f2090565b55565b614784909291925f52600460205260405f2090565b9081549081151561479481613583565b6147a860036105ef6107706109258861318d565b9483946147b485613dc6565b6001600160a01b0387165f5b868110614808575050506147d484826136b1565b93826147fe575b826147e9575b505061260257565b6147f591925084613c52565b14155f806147e1565b81151592506147db565b8061482783610ac06106ec60036105ef6107706109256001998c6131a4565b016147c0565b1561483457565b60405162461bcd60e51b815260206004820152600e60248201526d1cdc9c081b9bdd081b1bd8dad95960921b6044820152606490fd5b9190614897600161488860036107d6855f52600560205260405f2090565b61489181611e76565b1461482d565b60026148ab825f52600560205260405f2090565b0154926148d960036148c5845f52600560205260405f2090565b01805460ff60a01b1916600160a11b179055565b60046148ed835f52600560205260405f2090565b016148f9858254613956565b9055600561490f835f52600560205260405f2090565b0154610568614950600461492b865f52600560205260405f2090565b0154604051928391602083019586909160609282526002602083015260408201520190565b519020915f5160206158d05f395f51905f5261497960016105ef845f52600560205260405f2090565b9361498f6105b1845f52600560205260405f2090565b9461443d6149aa60016105ef875f52600560205260405f2090565b9260056149bf875f52600560205260405f2090565b0154906149cb8b61342a565b60046149df895f52600560205260405f2090565b0154916149f4895f52600860205260405f2090565b54604080516001600160a01b039d8e168152988d1660208a0152880194909452606087015260016080870152600260a087015260c086015260e08501526101008401529516948190610120820190565b9291939062093a8042019283421161043d577f24c4d1b5f695c04267b4d15eec720a4772017e05da66e8048b69ae625fdb049e9386614a8b875f52600c60205260405f2090565b5583614a9f875f52600d60205260405f2090565b55614ab2865f52600e60205260405f2090565b5580614b03575b5084614ae9575b60408051928352602083019590955233948201949094526001600160a01b0390931692606090a3565b614afe8530336001600160a01b038516614fa5565b614ac0565b614b1790336001600160a01b0384166145ce565b5f614ab9565b5f908152600560205260409020546001600160a01b031633036133af57565b15614b4357565b60405162461bcd60e51b81526020600482015260156024820152741a5b9cdd59999a58da595b9d08185c1c1c9bdd985b605a1b6044820152606490fd5b9081602091031261027957516102c181611ded565b15614b9c57565b60405162461bcd60e51b81526020600482015260156024820152740cccaca40e8e4c2dce6cccae440dad2e6dac2e8c6d605b1b6044820152606490fd5b15614be057565b60405162461bcd60e51b815260206004820152601960248201527f6361706974616c207472616e73666572206d69736d61746368000000000000006044820152606490fd5b60035491929091614c3e906001600160a01b03166106ec565b6040516399a5d74760e01b81526004810183905293909290602085602481875afa94851561221b575f95614f3f575b50614c788584613387565b604051636eb1769f60e11b81526001600160a01b038381166004830152306024830152939093169290602082604481875afa801561221b57614cc3925f91614f20575b501015614b3c565b6040516361d027b360e01b8152602081600481885afa90811561221b57614d18916020915f91614e94575b506040516370a0823160e01b81526001600160a01b03909116600482015291829081906024820190565b0381865afa90811561221b575f91614f01575b506040516370a0823160e01b815230600482015294602086602481875afa95861561221b575f96614ee0575b5086614dc4575b505082614d6d575b5050505090565b82614d7a91309084614fa5565b6040516370a0823160e01b815230600482015290602090829060249082905afa92831561221b57614dbb93614db5925f916121ec5750613956565b14614bd9565b5f808080614d66565b6020600491604051928380926361d027b360e01b82525afa90811561221b57614df89188915f91614ec1575b508486614fa5565b600354600490602090614e13906001600160a01b03166106ec565b6040516361d027b360e01b815292839182905afa90811561221b57614e65916020915f91614e9457506040516370a0823160e01b81526001600160a01b03909116600482015291829081906024820190565b0381875afa90811561221b57614e8d928892614e87925f916121ec5750613956565b14614b95565b5f80614d5e565b614eb49150823d8411614eba575b614eac818361328c565b810190614b80565b5f614cee565b503d614ea2565b614eda915060203d602011614eba57614eac818361328c565b5f614df0565b614efa91965060203d60201161221457612206818361328c565b945f614d57565b614f1a915060203d60201161221457612206818361328c565b5f614d2b565b614f39915060203d60201161221457612206818361328c565b5f614cbb565b614f5991955060203d60201161221457612206818361328c565b935f614c6d565b6040516323b872dd60e01b60208201526001600160a01b03928316602482015291909216604482015260016064808301919091528152613b6a9161460960848361328c565b6040516323b872dd60e01b60208201526001600160a01b039283166024820152929091166044830152606480830193909352918152613b6a9161460960848361328c565b15614ff057565b60405162461bcd60e51b815260206004820152600a6024820152691b9bc818dbdb9cd95b9d60b21b6044820152606490fd5b615037909392935f52600460205260405f2090565b91825493841515615047906138e9565b6150508461318d565b905460039190911b1c9361506c855f52600560205260405f2090565b600101546001600160a01b03169461508c815f52600560205260405f2090565b546001600160a01b031680956150aa835f52600560205260405f2090565b6003015460a01c60ff166150bd81611e76565b6001146150c990613e2f565b6001600160a01b03818116906150e3908a16821415613870565b6150f8906001600160a01b0384161415613fae565b6001600160a01b03165f9081526009602052604090206001600160a01b039091165f908152602091909152604090205460ff1661513490614fe9565b615146905f52600560205260405f2090565b600301546001600160a01b03169561515d90613948565b615166916131a4565b905460039190911b1c615181905f52600860205260405f2090565b54906102c191613387565b6040519061519b60408361328c565b600682526546696761726f60d01b6020830152565b604051906151bf60408361328c565b60018252603160f81b6020830152565b906102c192916153316151ef6151e860e0840184613d21565b3691613bdc565b6020815191012091803590602081019384359161520b83611ded565b604081013590606081013561521f81611ded565b60808201359060c060a0840135930135936040519660208801987f2054e03b04f9545fa635b913aa7da2098e7c0263da2bee2322325bb5ea97c21a8a52604089015260018060a01b03166060880152608087015260018060a01b031660a086015260c085015260e084015261010083015261012082015261012081526152a76101408261328c565b519020926152b361518c565b60208151910120906153286152c66151b0565b8051602091820120604080517f8b73c3c69bb8fe3d512ecc4cf759cc79239f7b179b0ffacaa9a75d522b39400f9381019384529081019590955260608501524660808501526001600160a01b0390921660a08401529091908160c08101610568565b51902091613314565b61562b565b6001600160a01b03165f818152600a60205260409020549091900361536b575f908152600a6020526040902080546001019055565b60405162461bcd60e51b815260206004820152600e60248201526d0dcdedcc6ca40dad2e6dac2e8c6d60931b6044820152606490fd5b908051156153b5576153b291615711565b50565b5050565b5f818152600560205260409020600301805460ff60a01b1916600160a01b1790555f52600660205260405f20545f52600760205260405f206153fb815461341c565b9055565b5f5b81518110156153b5576154148183613394565b515f8181526005602052604090206002015491906001600160ff1b038316830361043d575f526005602052600460405f20019182549060011b810180911161043d576001925501615401565b905f5b825181101561551f578061547960019285613394565b51615491600261174e835f52600560205260405f2090565b9060056154a6825f52600560205260405f2090565b01546105686154c26004611a0a855f52600560205260405f2090565b519020905f5160206158d05f395f51905f526154e6825f52600660205260405f2090565b54926154fe876105ef855f52600560205260405f2090565b615516611a9a6105b1865f52600560205260405f2090565b0390a401615463565b509050565b5f908152600560205260409020600101546001600160a01b03163303612a6557565b5f52600560205260ff600360405f20015460a01c166005811015611e80576133e857565b6001600160a01b03169061557e9082615711565b80519081151591826155a6575b50506155945750565b635274afe760e01b5f5260045260245ffd5b819250906020918101031261027957602001516155c281612a96565b155f8061558b565b9060609260209183526040828401528051918291826040860152018484015e5f828201840152601f01601f1916010190565b3d15615626573d9061560d82613bc1565b9161561b604051938461328c565b82523d5f602084013e565b606090565b60405161190160f01b6020820190815260228201939093526042810193909352929161565a8160628101610568565b5190209161566882846156fb565b6001600160a01b038281169116146156f357803b156156ec575f926105686156a985946040519283916020830195630b135d3f60e11b8752602484016155ca565b51915afa6156b56155fc565b901580156156e1575b6156dc57602001516001600160e01b031916630b135d3f60e11b1490565b505f90565b5060048151106156be565b5050505f90565b505050600190565b6102c1916157089161572f565b90929192615773565b5f806102c19360208151910182855af16157296155fc565b916157ef565b815191906041830361575f576157589250602082015190606060408401519301515f1a9061584d565b9192909190565b50505f9160029190565b60041115611e8057565b61577c81615769565b80615785575050565b61578e81615769565b600181036157a55763f645eedf60e01b5f5260045ffd5b6157ae81615769565b600281036157c9575063fce698f760e01b5f5260045260245ffd5b806157d5600392615769565b146157dd5750565b6335e2f38360e21b5f5260045260245ffd5b90615813575080511561580457805190602001fd5b630a12f52160e11b5f5260045ffd5b81511580615844575b615824575090565b639996b31560e01b5f9081526001600160a01b0391909116600452602490fd5b50803b1561581c565b91907f7fffffffffffffffffffffffffffffff5d576e7357a4501ddfe92f46681b20a084116158c4579160209360809260ff5f9560405194855216868401526040830152606082015282805260015afa1561221b575f516001600160a01b038116156158ba57905f905f90565b505f906001905f90565b5050505f916003919056fe26b758d9c287692616258eab80c3be8d4fb3ce539aa59c429d433bfbbf8ae437a26469706673582212208c57997b989caa0e7cd7bcf3d0a8969c82820fb40bb84c80f160cef36100816764736f6c634300081e0033","linkReferences":{}},"methodIdentifiers":{"ARCHIVE_DELAY_SECONDS()":"9b19ff32","MAX_BATCH_SIZE()":"cfdbf254","addSrpSigned((uint256,address,uint256,address,uint256,uint256,uint256,bytes),bytes,bytes)":"bd9c6b16","addSrpSignedBatch((uint256,address,uint256,address,uint256,uint256,uint256,bytes)[],bytes[],bytes[])":"d468fd0b","addSrpToProcess(uint256,address,uint256)":"c005bf28","archiveProcessSrpsWithDeposit(uint256)":"0e145050","batchArchiveProcesses(uint256[])":"2b7416de","batchCancel(uint256[])":"19fb4abf","batchCreateProcesses(address[],uint256[],address[])":"454570c1","batchGrantRootSellerConsent(address[],bool)":"d2a06675","batchLock(uint256[])":"c82c4083","batchLockRoots(uint256[])":"5f99a57c","batchRefund(uint256[])":"05424c54","batchRelease(uint256[],uint256)":"bef4f0bc","cancel(uint256)":"40e58ee5","createProcess(address,uint256,address)":"ae98bb93","grantRootSellerConsent(address,bool)":"ca0f55e5","lock(uint256)":"dd467064","minCleanupBounty()":"66cd33f0","processArchivableAt(uint256)":"71c3cc34","processCleanupTotalDeposit(uint256)":"e4eeded2","processCount()":"848df540","processLockedCount(uint256)":"229df066","processPerSrpDeposit(uint256)":"415b827b","processSrps(uint256,uint256)":"fefa10e8","refund(uint256)":"278ecde1","releaseProcessWithCleanupDeposit(uint256,uint256)":"1bf5901b","rootSellerThirdPartyConsent(address,address)":"8c8cf574","sellerBatchAdd(uint256,address[],uint256[])":"01b09412","sellerNonces(address)":"aa838987","srpCount()":"4f1c68e0","srpFees()":"6563b1d1","srpToProcessId(uint256)":"c1a05c8e","srpTotalProcessValue(uint256)":"9c399187","srps(uint256)":"9576016b"},"id":6}