{"abi":[{"type":"constructor","inputs":[{"name":"_treasury","type":"address","internalType":"address"},{"name":"_feeBps","type":"uint256","internalType":"uint256"}],"stateMutability":"nonpayable"},{"type":"function","name":"MAX_FEE_BPS","inputs":[],"outputs":[{"name":"","type":"uint256","internalType":"uint256"}],"stateMutability":"view"},{"type":"function","name":"acceptTreasury","inputs":[],"outputs":[],"stateMutability":"nonpayable"},{"type":"function","name":"calculateFee","inputs":[{"name":"amount","type":"uint256","internalType":"uint256"}],"outputs":[{"name":"","type":"uint256","internalType":"uint256"}],"stateMutability":"view"},{"type":"function","name":"cancelTreasuryProposal","inputs":[],"outputs":[],"stateMutability":"nonpayable"},{"type":"function","name":"collectFee","inputs":[{"name":"token","type":"address","internalType":"address"},{"name":"amount","type":"uint256","internalType":"uint256"}],"outputs":[{"name":"feeAmount","type":"uint256","internalType":"uint256"}],"stateMutability":"nonpayable"},{"type":"function","name":"feeBps","inputs":[],"outputs":[{"name":"","type":"uint256","internalType":"uint256"}],"stateMutability":"view"},{"type":"function","name":"pendingTreasury","inputs":[],"outputs":[{"name":"","type":"address","internalType":"address"}],"stateMutability":"view"},{"type":"function","name":"proposeTreasury","inputs":[{"name":"newTreasury","type":"address","internalType":"address"}],"outputs":[],"stateMutability":"nonpayable"},{"type":"function","name":"setFeeBps","inputs":[{"name":"newFeeBps","type":"uint256","internalType":"uint256"}],"outputs":[],"stateMutability":"nonpayable"},{"type":"function","name":"treasury","inputs":[],"outputs":[{"name":"","type":"address","internalType":"address"}],"stateMutability":"view"},{"type":"event","name":"FeeCollected","inputs":[{"name":"token","type":"address","indexed":true,"internalType":"address"},{"name":"amount","type":"uint256","indexed":false,"internalType":"uint256"},{"name":"payer","type":"address","indexed":true,"internalType":"address"}],"anonymous":false},{"type":"event","name":"FeeUpdated","inputs":[{"name":"newFeeBps","type":"uint256","indexed":false,"internalType":"uint256"}],"anonymous":false},{"type":"event","name":"TreasuryProposalCancelled","inputs":[{"name":"treasury","type":"address","indexed":true,"internalType":"address"},{"name":"cancelledProposal","type":"address","indexed":true,"internalType":"address"}],"anonymous":false},{"type":"event","name":"TreasuryProposed","inputs":[{"name":"currentTreasury","type":"address","indexed":true,"internalType":"address"},{"name":"proposedTreasury","type":"address","indexed":true,"internalType":"address"}],"anonymous":false},{"type":"event","name":"TreasuryUpdated","inputs":[{"name":"newTreasury","type":"address","indexed":false,"internalType":"address"}],"anonymous":false},{"type":"error","name":"AddressEmptyCode","inputs":[{"name":"target","type":"address","internalType":"address"}]},{"type":"error","name":"AddressInsufficientBalance","inputs":[{"name":"account","type":"address","internalType":"address"}]},{"type":"error","name":"FailedInnerCall","inputs":[]},{"type":"error","name":"FeeTooHigh","inputs":[]},{"type":"error","name":"OnlyPendingTreasury","inputs":[]},{"type":"error","name":"OnlyTreasury","inputs":[]},{"type":"error","name":"SafeERC20FailedOperation","inputs":[{"name":"token","type":"address","internalType":"address"}]},{"type":"error","name":"ZeroAddress","inputs":[]}],"bytecode":{"object":"0x60803460a257601f61068c38819003918201601f19168301916001600160401b0383118484101760a657808492604094855283398101031260a25780516001600160a01b038116919082900360a25760200151908015609357605a8211608457600180546001600160a01b0319169190911790555f556040516105d190816100bb8239f35b63cd4e616760e01b5f5260045ffd5b63d92e233d60e01b5f5260045ffd5b5f80fd5b634e487b7160e01b5f52604160045260245ffdfe6080806040526004361015610012575f80fd5b5f3560e01c90816324a9d853146104c5575080632ec0ff6c146103185780632ed6b75d146102f057806361d027b3146102c857806372c27b621461025a57806399a5d7471461022e578063d55be8c614610213578063d920b5ef146101ad578063e49d2a30146101225763f110ed671461008a575f80fd5b3461011e57602036600319011261011e576100a36104de565b6001546001600160a01b0316903382900361010f576001600160a01b031690811561010057600280546001600160a01b031916831790557f9745945724579b0c42c077e39e88287155952650b2dbb9fde023042588ca24575f80a3005b63d92e233d60e01b5f5260045ffd5b632298d39d60e11b5f5260045ffd5b5f80fd5b3461011e575f36600319011261011e576002546001600160a01b038116330361019e57336bffffffffffffffffffffffff60a01b60015416176001556bffffffffffffffffffffffff60a01b166002557f7dae230f18360d76a040c81f050aa14eb9d6dc7901b20fc5d855e2a20fe814d16020604051338152a1005b63d41fc54960e01b5f5260045ffd5b3461011e575f36600319011261011e576001546001600160a01b03163381900361010f57600280546001600160a01b031981169091556001600160a01b0316907f3431482f1a8d9b3035fcd77bc8093e0f23cb2a094de85092bae0e540b5208b975f80a3005b3461011e575f36600319011261011e576020604051605a8152f35b3461011e57602036600319011261011e5760206127106102515f546004356104f4565b04604051908152f35b3461011e57602036600319011261011e57600154600435906001600160a01b0316330361010f57605a81116102b9576020817f8c4d35e54a3f2ef1134138fd8ea3daee6a3c89e10d2665996babdf70261e2c76925f55604051908152a1005b63cd4e616760e01b5f5260045ffd5b3461011e575f36600319011261011e576001546040516001600160a01b039091168152602090f35b3461011e575f36600319011261011e576002546040516001600160a01b039091168152602090f35b3461011e57604036600319011261011e576001600160a01b036103396104de565b168015610480576127106103505f546024356104f4565b048061038e575b602091604051908282527f36119f4f28ae3384ed31589f21ec2992cb0ebe53b11c79a24466ee74471764ed843393a3604051908152f35b5f8060018060a01b036001541660405160208101916323b872dd60e01b83523360248301526044820152846064820152606481526103cd60848261051b565b519082865af13d15610474573d67ffffffffffffffff81116104605761041591604051916104056020601f19601f840116018461051b565b82523d5f602084013e5b8461053d565b805190811515918261043c575b5050156103575750635274afe760e01b5f5260045260245ffd5b819250906020918101031261011e576020015180159081150361011e578380610422565b634e487b7160e01b5f52604160045260245ffd5b6104159060609061040f565b60405162461bcd60e51b815260206004820152601b60248201527f557365205745544820666f7220455448206f7065726174696f6e7300000000006044820152606490fd5b3461011e575f36600319011261011e576020905f548152f35b600435906001600160a01b038216820361011e57565b8181029291811591840414171561050757565b634e487b7160e01b5f52601160045260245ffd5b90601f8019910116810190811067ffffffffffffffff82111761046057604052565b90610561575080511561055257805190602001fd5b630a12f52160e11b5f5260045ffd5b81511580610592575b610572575090565b639996b31560e01b5f9081526001600160a01b0391909116600452602490fd5b50803b1561056a56fea264697066735822122012451e052ecdb4e09ad4a1092463efccc7281427af0e54dbb33f6c9ae8e48a7464736f6c634300081e0033","linkReferences":{}},"methodIdentifiers":{"MAX_FEE_BPS()":"d55be8c6","acceptTreasury()":"e49d2a30","calculateFee(uint256)":"99a5d747","cancelTreasuryProposal()":"d920b5ef","collectFee(address,uint256)":"2ec0ff6c","feeBps()":"24a9d853","pendingTreasury()":"2ed6b75d","proposeTreasury(address)":"f110ed67","setFeeBps(uint256)":"72c27b62","treasury()":"61d027b3"},"id":8}